:020000040800F2
:10000000880A0020D158000861560008635600088D
:100010006556000867560008695600080000000091
:100020000000000000000000000000006B56000807
:100030006D560008000000006F5600087156000859
:10004000F5580008F9580008FD5800080159000843
:100050000559000809590008755600089956000806
:100060000D5900089F560008A556000811590008B0
:1000700015590008195900081D5900082159000890
:10008000C556000825590008295900082D590008AF
:100090003159000835590008395900083D59000800
:1000A000CB56000841590008455900084959000835
:1000B000DD560008E35600084D5900085159000864
:1000C00055590008E9560008EF560008595900082C
:1000D0005D590008F5560008FB5600080157000856
:1000E0000757000861590008655900080F570008B4
:1000F00011570008195700081B57000869590008D4
:100100006D590008715900081D57000875590008FD
:10011000795900087D59000823570008295700081D
:1001200081590008855900082F570008895900088F
:100130008D590008915900089559000899590008EF
:100140009D590008A1590008A5590008A95900089F
:10015000AD590008B1590008B5590008B95900084F
:10016000BD590008C1590008C5590008C9590008FF
:10017000CD590008D1590008D559000800000000E9
:10018000D9590008DD590008F8B5040025D004F15C
:100190003C05697821B900202870204601F0FFF95C
:1001A00024216970206802685208520002602068A9
:1001B000016841F4004101602068026822F40042B5
:1001C000026001F0EFFC01466068DFF84C219042CC
:1001D00005D2DFF84831994205D20120F2BDDFF89F
:1001E00040018142F9D32068DFF838314668B1FB1D
:1001F000F3F3B60943EA861646602668376A6068F4
:10020000904206D34FF4967043434FF47A70B3FB99
:10021000F0F35B1CBF0943EA87133362491E23686E
:10022000DE696768974206D27F0000F043F8042930
:1002300013D2042111E0A06820B907EB470700F0B2
:1002400039F805E01920474300F034F841F48041C3
:1002500008050CBF012141F40041DFF8D801064038
:100260000E43DE6122681368E169206A23F0C0034F
:100270000B43034313602268DFF8BC0193682169D4
:100280000340E0680B43034393602168CA68A36995
:100290006069120A034343EA0222CA6020680168C7
:1002A00041F0010101600020686020216970206335
:1002B000A870F2BDB1FBF7F1491CC1F30B01704707
:1002C000308D7262411E3185708D411E718570477F
:1002D000009031684A6900928969009100987047DE
:1002E0003068016841F480710160704721F48061D9
:1002F00001603068026842F400620260704700905A
:1003000021684A690092896900910098704700222B
:100310002946304601F018B8A186010080841E00ED
:1003200000093D0040420F002DE9FC4700F088F82D
:1003300000F08CF85DD100F074F8002859D13878BD
:10034000012856D000F067F801D400F079F9414651
:10035000D6F800E00C9D0B98DDF828C0DEF8008090
:1003600028F40068CEF800804FF0210E87F801E0F5
:100370004FF0400887F802804FF0000EC7F804E005
:1003800000F033F900F0AFFE00282BD108E0716ACD
:100390000A780261706A411C7162308DFFF792FF2A
:1003A000308DA0B122462946304601F036F8A0B97A
:1003B000706A326801781161706A411C7162308D17
:1003C000411E00F019F8EBD589B20029DFD1224691
:1003D0002946304601F04CF830B17868042801D144
:1003E00000F042FF012005E000F03EFF00F00CF8B5
:1003F00000E00220BDE8F6873185708D421E7285CF
:100400003068426953077047202078700021B97026
:100410000020387070470121397030680268D107B8
:1004200070470094192301220449304600F08CBF24
:10043000000000000030FFFF007CFFFF0200100002
:100440000646884691469A4601F0FCBB06F13C07F9
:1004500004467878202870472DE9FC47FFF7F0FF25
:10046000FFF7F4FF02D1FFF7DCFF002840F08180A6
:10047000387801287DD0FFF7CEFF01D400F0E0F8F6
:100480004146D6F800E00C9D0B98DDF828C0DEF858
:10049000008028F40068CEF800804FF0220E87F824
:1004A00001E04FF0400887F802804FF0000EC7F8D7
:1004B00004E000F09AF800F065FE00284FD1308D7E
:1004C00018B1012804D100F09FF800F072F817E08D
:1004D000022806D130680168FFF708FF002000906D
:1004E00001E000210091FFF7F4FE09E022462946D1
:1004F00000F04BF8002832D100F03EF8FFF7E0FEA4
:10050000308D002832D0042824D20128EED00228D1
:10051000DFF8408100942B460CD100224146FFF7C2
:10052000F8FE00281BD100F076F8716A0870706A36
:10053000421CE3E700224146FFF7EBFE00280ED104
:1005400000F0E0FC2B4600F040F84146FFF7E1FEEA
:1005500028B9E8E72246294600F017F808B101203B
:1005600008E000F015F8CBD50069DEE7FFF74CFF97
:1005700000E00220BDE8F68730680169706A01700A
:10058000716A4A1C704722464946304600F08DBFCA
:1005900030680169706A0170716A308D4A1C411EB1
:1005A00072623185708D411E7185306841694A07DC
:1005B0007047009031684A6900928B6900930098F7
:1005C0000A6842F400720A60704730680169706A14
:1005D0000170716A308D4A1C411E726231850022A1
:1005E000708D411E718500947047C6F824C07085D7
:1005F0005346708D30854A46DFF88800F0620194DA
:1006000000953046704700003068016821F4806131
:100610000160002070473068016841F4007101609A
:1006200030680169706A0170716A308D4A1C411E20
:1006300072623185708D411E718532681069704714
:10064000026842F00102026070470098401E00906C
:10065000009870470400010000980A6842F4007294
:100660000A60704700224FF00111204600F06CBE76
:10067000416841F4805141607047016841F48061F4
:10068000016070470000FFFF2DE9FC41044604F1C2
:100690003C052268DFF89C8B5168D4F82CE0A878E0
:1006A0006B780027102818BF402840F027829769F0
:1006B000D2F814C05FEACC7605D4BEF52A0F18BF75
:1006C000BEF12A4F47D05FEACC7645D58E0543D59B
:1006D000E06AB0F52A0F08BF012104D0E06AB0F14A
:1006E0002A4F01D10821E162A878402809D1686920
:1006F0000028A8681ABF40F00100C0B200F0FE0058
:1007000028E02069B0F5804F16D168782128A868C4
:100710000EBF00F0FE0040F00100C0B21061606B3F
:1007200000281CBFC06B00282AD1A06B00281CBF6A
:10073000C06B00280FD023E0686920B900F0DAFA16
:1007400040F0F00006E06869012804D100F0D2FA18
:1007500040F0F1001061CBE25FEA0C7615D58E0512
:1007600013D5A868C0B21061606B00281CBFC06BB5
:10077000002805D1A06B00281CBFC06B0028EAD060
:100780002068416841F4006117E15FEA8C7600D58A
:100790008E0540F19780AB78E16A276B6878222854
:1007A00040F088806869002808BF402B04D10021F0
:1007B00000F0BEFA009A9BE26869002804BF206935
:1007C000B0F5404F08D100F0B9FA41F480711160E2
:1007D0006869401C68618BE2608D28B900F0AEFA50
:1007E00041F40071116062E0608D012835D141450E
:1007F00015D1116821F480611160216848680205F3
:1008000006D5086820F480600860002100914CE063
:10081000002200924B6900938A6900920DE008293A
:1008200018BF202903D0122F0AD101290DD000F0C2
:1008300067FA0021009100F09AFAFFF70DFF36E009
:1008400004291CBF0229102902D000F059FA2AE01D
:10085000116841F48061116025E0638D022B0FD196
:1008600004291CBF0229102905D000F049FA20688C
:10087000FFF740FD08E0106840F48060106003E07E
:10088000136843F4806313602068426813050AD537
:10089000414518BF012904D008291CBF102920296F
:1008A00001D1FFF7E5FE00200090FFF729FD0021B0
:1008B00069611DE2002300935169009192690092E1
:1008C000009915E27F075ED556683705F9D45FEACF
:1008D0000C662DD54F052BD55FEA4C7628D4697868
:1008E000AB78E76A208D002808BF212913D1082F93
:1008F0001CBF202F474504D000F00CFA0022AA703C
:100900002EE000F061FA31D10021A9702046BDE847
:10091000F64101F09DB9212903D0402B08BF2229BF
:10092000CFD1608D00284CD0A878402827D0AFE1E7
:100930005FEA4C77C5D58905C3D5212B1DD1E16A66
:10094000687821283AD1608D08B100F0A1B9082952
:100950001CBF2029414506D000F0DCF90020A8701A
:100960002021697004E000F02FFACDD00021A97099
:100970002046BDE8F64101F06CB940281ED1204662
:10098000BDE8F641C4E25068030517D45FEA4C6045
:1009900063D54B0561D55FEA4C705ED46978222936
:1009A0000CD1608D04280AD300F0D7F9608D03289C
:1009B00004D12068416821F48061416098E1E16AD6
:1009C000022947D0012818BF002843D10020DFF8B2
:1009D0007019009019200B68B3FBF0F04FF47A788F
:1009E000B0FBF8F808EB88000090FFF72EFED0B1BE
:1009F00013689805F9D4116821F48061116000F042
:100A00005DFB00F0CEF96262202200F0ACF96A7062
:100A1000A878402869D10021A97021632046BDE84B
:100A2000F64101F017B9686840F02000686050682E
:100A300020F4E0605060226800F073F92023608D9C
:100A4000421E62856B700020A8702046BDE8F6410A
:100A500001F001B900F059F94AE15FEA4C70FBD5A9
:100A60008905F9D5E06A618D042904D100F04DF9BA
:100A70002168086935E1618D03290CD1516804288A
:100A800021F4806118BF0228516001D000F090F974
:100A900000F087F929E1618D022940F021810128C8
:100AA00018BF10280CD0042818BF022803D01068E3
:100AB00040F4007007E0116841F48061116003E0C8
:100AC000106820F4806010602168086900F046F921
:100AD000226800F042F92068416821F440714160C9
:100AE00020206870A978402995D00020A870122194
:100AF00021632046BDE8F64101F0AEB8686800B950
:100B000097695069860722D58E0520D5686800B19F
:100B100097696878002100F02800282811D100F09A
:100B2000F4F8780758BF0121380654BFE268A2697B
:100B30000020287002B02046BDE8F04192B201F0DA
:100B40008CB800F0F5F80021009A2970D0E0C706B3
:100B500073D58E0571D56F78506820F4E0605060D1
:100B600000210091206841690091FFF769FD00981C
:100B700000F01EF921684868020526D5222F18BF0B
:100B80002A2F0FF2F1660FD0606B00F0F6F8606B61
:100B900001F03AFA012818D0606B0665606B01F02D
:100BA00041F990B1606B0EE0A06B00F0E6F8A06B2D
:100BB00001F02AFA012808D0A06B0665A06B01F0AD
:100BC00031F910B1A06B016D8847608D98B1206834
:100BD00041694A0702D5006900F0C0F82068416900
:100BE0004A0602D5006900F0B9F8608D18B168684E
:100BF00040F004006860686818B12046BDE8F6411E
:100C0000DAE12A2F05D1206328216970204601F0FE
:100C100027FA6878282808D1C4F82C8000F0CEF88C
:100C20002046BDE8F64101F01CBA206B222818BF0F
:100C3000222F5DD100F0C2F847E0212B18BF292BED
:100C40002DD103061DD54B051BD5430719D4697853
:100C5000608D00284CD0606A03781361606A421C82
:100C6000626200F074F808BF292941D100F093F8BE
:100C700021202063282169702046BDE8F64101F05B
:100C8000F1B9400734D5890532D5608D00282FD0C1
:100C9000606A01781161606A411C616226E0430666
:100CA00018D54B0516D5430714D46978608DF8B173
:100CB00000F037F800F04BF808BF2A2918D100F0EF
:100CC0006AF822202063282169702046BDE8F64199
:100CD00001F0C6B940070BD5890509D5608D38B13B
:100CE0001069616A0870606A421C626200F03BF839
:100CF000BDE8F381A8680004C00D00F0060070474D
:100D0000106820F4806010607047506820F48060A4
:100D100050607047506820F4E060506011212163FA
:100D200070471069626A1070606A431C63627047A2
:100D300000915369009391690091704700210091DF
:100D40005369009391690091009811687047608D14
:100D5000421E6285608D002870471069616A0870C4
:100D6000606A421C6262608D411E61857047216825
:100D70004A6900928B6900937047026853686385E3
:100D8000608D18B1686840F004006860486820F41D
:100D90000060486070472068416821F480614160CC
:100DA000704720680169606A0170616A4A1C704777
:100DB0002068016821F48061016070470020206391
:100DC00020216970A8707047506820F4E06050607E
:100DD0002068016841F40071016000202063202137
:100DE0006970A87840287047F8B5054605F13D00C0
:100DF00029684E694F6842780024F30505D5FB0544
:100E000003D56FF4807301244B61B10507D5FB0551
:100E100005D52B686FF4007144F002045961710527
:100E20005DD5FB055BD56B8D90F800C0D5F830E043
:100E3000202A08BF002B6FF4806145D1BCF1210F3F
:100E400018BFBCF1290F05D0BCF1280F08BFBEF1B7
:100E5000210F39D10278EB6ADFF8D8C3082B14BF11
:100E6000202B282A16D1C5F82CC02A68536823F4F1
:100E7000E06353602A685161202229680B6823F4DB
:100E800080630B600021296302704170284601F0E5
:100E9000E8F824E0212A14D1C5F82CC02A632023C5
:100EA0000370002242702868426822F4E0624260C7
:100EB00028684161286800F026F8284601F0D2F839
:100EC0000DE0286841610AE02B68102A18BF402A0B
:100ED000596144F0040402D1286800F0C6F93005D5
:100EE00007D5F90505D529686FF4006044F00804BA
:100EF000486134B1286C04432C642846BDE8F240B4
:100F00005AE0F1BD3068016821F4806101607047EA
:100F100010B500F13D0300F148021C78916871B9E9
:100F200000685168012905D11368DBB2036190683C
:100F3000801C19E011680904090E016112E0916832
:100F4000012907D113680068DBB203619168491C6D
:100F5000916010BD916802292DD1222C06D1006824
:100F6000FFF7BFF99068401C906010BD418D61B1E2
:100F7000212C0AD1416A03680A781A61416A4A1C25
:100F80004262418D4A1E428510BD418D002908BF35
:100F9000212C10D101684A6822F4E0624A6001689D
:100FA000FFF75BFB0021016320221A705970BDE836
:100FB000104000F04DBE10BD38B5044604F13D05AB
:100FC00028786978102914BF4029222804D1216883
:100FD0000A6822F400620A6000F02801282903D17F
:100FE0000020206329700BE0226851680A0505D4AF
:100FF000602803D020202870002169700020206321
:10100000206841680A0523D5416821F400614160E8
:10101000606B0FF2612190F83520012A09D001653B
:10102000606B00F0FFFE002825D000F054F8606BE4
:101030000BE0A06B0165A06B00F0F4FED8B1206856
:1010400000F032F800F047F8A06B016D884712E01D
:101050002A78602A0AD1202129700022226400F017
:1010600023F800F031F800F0FEFF04E000F01CF877
:10107000204600F0F0FD206C10F00F0F01D000F0C2
:101080001DF82878216C4A070DD528280BD169480E
:10109000E062002121632020287069702046BDE8AD
:1010A000324000F0DEBF31BD41694A0605D5006916
:1010B000616A0870606A421C626270472068416819
:1010C00021F4E061416070472068016849084900E7
:1010D00001602046704720680168490849000160A6
:1010E0002020287070472DE9F84304462068DDF879
:1010F0002080099F8946016841F4807115461E468B
:10110000016000974346FFF7ADFA40B120680168DF
:10111000CA0544BF4FF400702064032023E0206818
:1011200009F0FE0101613B46424600F01EF8A0B9FD
:101130000090216800F084F800F022F840B9012EF8
:101140000DD02168280A08613A4600F018F830B13D
:10115000206C042801D100F00CF8012003E0206885
:10116000EDB205610020BDE8F2837649204613E127
:1011700000002068016841F4007101607047414639
:1011800020464AE12DE9F84F05462868DDF8288019
:101190000B9F0C46FFF771FA16462868016841F468
:1011A00080719946016000F058F800284FF4007AE9
:1011B0002CD12968DFF88CB104F0FE00086100F042
:1011C00047F8002832D10090296800F039F800F083
:1011D00035F870B9B9F1010F05D02968300A0861F6
:1011E00000F02AF828B92868F6B2066100F024F861
:1011F00030B1286C042819D1286800F036F815E0C1
:101200002868FFF76EF800F028F838B12868016800
:10121000CA0548BFC5F840A0032008E0286844F08C
:101220000104E4B2046100F013F800B10120BDE84C
:10123000F28F00000000FFFF3A4641462846ECE0EE
:101240004A6900923A468969009141460098704780
:101250003B464246594628469EE0009743460022B8
:101260004FF0011128466FE03068016841F40071C9
:10127000016070477CB5002100911925816B3048D1
:1012800001F13D024FF47A7613780468B4FBF5F56A
:10129000B5FBF6F6232046430096009838B1009837
:1012A000401E00900C6820688505F6D403E0086CA9
:1012B00040F020000864486B08B10024C463886BC8
:1012C00008B10024C4630868046824F480640460DE
:1012D00000204885486B08B100240465886B08B17C
:1012E00000240465086804686408640004601078D9
:1012F000602809D120231370002454700C64084620
:10130000BDE8764000F0AFBE03F02803282B0ED1D5
:101310000868036843F00103036028230868046831
:1013200044F48064046000200863137003E020200C
:101330001070002454700846BDE8764000F08BBC65
:1013400094030020020001002DE9F041069F0546AC
:101350000E4690461C4631022868090E01290CBF32
:1013600040698069304080B2B1B288420CBF012030
:10137000002040450DD114F1010FECD000F062FCCB
:10138000C01B844201D3002CE5D100F063F801209A
:1013900000E00020BDE8F081F8B505460E46144691
:1013A0001F463102090E2868012919D141693140CF
:1013B00089B2B2B2914219D041694A0518D500F0FC
:1013C00025F82A685061002105F13C00296320229C
:1013D00042708170426842F004024260017013E082
:1013E0008169314089B2B2B29142E5D10020F2BDAB
:1013F00014F1010FD5D000F025FCC01B844201D3AD
:10140000002CCED100F026F80120F2BD016841F495
:10141000007101606FF48060704770B505460C463E
:10142000164628684169080612D4284600F069F873
:1014300008B1012070BD14F1010FF2D000F002FCE0
:10144000801B844201D3002CEBD100F003F8F0E7BD
:10145000002070BD00202863202105F13C000022FF
:1014600041708270416841F0200141600270704714
:1014700070B505460C46164628684169480712D4DF
:10148000284600F03EF808B1012070BD14F1010FAC
:10149000F2D000F0D7FB801B844201D3002CEBD1AB
:1014A000FFF7D8FFF0E7002070BD70B505460C4689
:1014B0001646286841694A0617D44169CA060BD402
:1014C00000F0C0FB801B844201D3002CF1D100F05E
:1014D0000EF841F0200104E06FF01001416100F0CE
:1014E00006F841600270012070BD002070BD002030
:1014F0002863202105F13C00002241708270416880
:10150000704701684A6953050FD56FF480624A61DC
:10151000002101633C30202242708170426842F019
:10152000040242600170012070470020704730B40F
:10153000002513E050F8042BD30744BFA9F10103A1
:101540009A18091F042942F8045BFAD213468C0743
:1015500044BF15809B1CC90748BF1D7050F8041B71
:101560000029E7D130BC704781B0002000900022F4
:10157000DFF8CC04416841F480414160416801F4E6
:101580008041009100990092036843F0805303600A
:10159000006800F080500090009801B0704710B5CE
:1015A00086B004461422002101A800F05DFD2168E8
:1015B000DFF89004814237D10022DFF88C4400929A
:1015C0001222206840F002002060216801F0020130
:1015D00000914FF440610098DFF87004019102928D
:1015E00000210391032204210591049201A900F036
:1015F00045FD002000900022216941F48001216115
:101600000021206900F4800000900098212000F063
:101610005BFE212000F075FE00220021222000F058
:1016200053FE222000F06DFE06B010BD80B500F024
:1016300035F909D100210091426842F0010242606F
:10164000406800F00100A6E0B1F1804F0ED100F03B
:10165000B2F842F0010200F0AAF800F00100009098
:1016600000981C2000F030FE1C209BE0DFF8E023F7
:1016700091420ED100F09FF842F0020200F097F87C
:1016800000F00200009000981D2000F01DFE1D20BB
:1016900088E0DFF8C02391420AD100F08CF842F0D4
:1016A00004020260006800F004000090009801BD90
:1016B000DFF8A42391420ED100F07DF842F0080239
:1016C00000F075F800F0080000900098322000F05B
:1016D000FBFD322066E0DFF8842391420ED100F05A
:1016E0006AF842F0100200F062F800F0100000907A
:1016F0000098362000F0E8FD362053E0DFF8602344
:1017000091420ED100F057F842F0200200F04FF85D
:1017100000F0200000900098372000F0D5FD372021
:1017200040E0DFF84023914228D100210091426837
:1017300042F0020242600022406800F00200009085
:1017400000982B2000F0C0FD2B2000F0DAFD0022D5
:1017500000212C2000F0B8FD2C2000F0D2FD00224A
:1017600000212D2000F0B0FD2D2000F0CAFD002248
:1017700000212E2000F0A8FD2E2013E0DFF8E82243
:10178000914213D100210091426842F480324260BC
:10179000406800F48030009000220098182000F08B
:1017A00093FD1820BDE8024000F0ABBD01BD026012
:1017B000002200687047002100910268704710B550
:1017C00086B000F01CF92168DFF8A022DFF878026B
:1017D000914213D1002105914FF42851026842F043
:1017E000100202600222006800F0100005900598C7
:1017F000DFF87C0200F04CF8012143E0B1F1804FAA
:1018000012D1002105910421026842F00102026018
:101810000222006800F0010005900598DFF85402EC
:1018200000F036F801212DE0DFF82422914214D196
:10183000002105910221026842F002020260006864
:1018400000F00200059005980091019100F022F847
:101850000221049169467D4816E07E4A914215D1E5
:10186000002105914FF4E041026842F00802026055
:101870000222006800F00800059005987E4800F0FC
:1018800007F802210491694600F0F8FB06B010BD8C
:101890000091019200210291039170470168734AFF
:1018A000674891427047F8B586B000F0A8F8226802
:1018B000724B704864499A424FF480654FF000665D
:1018C00028D1002205924B6943F010034B6100239D
:1018D0004A6902F010020592059A05934FF4C0621E
:1018E0000F6847F001070F6002230968644F01F099
:1018F000010100F08AF8634800F094F808B101F0A3
:1019000009FBA763BC6300220021252000F0DCFC5A
:10191000252070E05C4B584F9A423FD1002205923F
:101920000B6943F400330B6100230A6902F40032AF
:101930000592059A05930A6842F001020A600A6856
:1019400002F001020592059A059302230A6842F00B
:1019500008020A600822096801F0080100F055F841
:101960000221019100220292202003210090039184
:10197000072204926946384600F080FB434F4448F2
:1019800000F050F808B101F0C5FAA763BC6300226B
:101990000021262000F098FC26202CE03D488242C1
:1019A0002BD100220592086940F480200861086963
:1019B00000F4802005900598059202220B6843F000
:1019C00008030B60086800F0080005904FF44071B0
:1019D00005980091019200210291032207210491B0
:1019E00003926946384600F049FB00220021272077
:1019F00000F06AFC272000F084FC07B0F0BD04462C
:101A000014220021684600F02FBB05910599009231
:101A10000193002202920323072203930492694652
:101A200000F02CBB38600021B960F9607961B961C0
:101A3000F961396279627E603D61384600F00EB925
:101A40004038024000580040303802400004024054
:101A50000004004000080040000C0040001000405E
:101A6000001400400004014000400140000001401B
:101A70000010024000000240000C02400010014033
:101A80005C0400204064024000440040BC0400208C
:101A900088600240004800402DE9F04104000F46F4
:101AA00054D0494E306800F00700B84202D200F02E
:101AB00073F84BD12068454D810712D5400703D5F7
:101AC000A96841F4E051A9602078010703D5A8680E
:101AD00040F46040A860A968A06821F0F0010143CB
:101AE000A9602178C80729D56068012802D1296832
:101AF0008A0305E0022818BF032803D129688A0158
:101B000003D423E029688A0720D5A968890840EA18
:101B10008100A86000F096F88046A868616800F02F
:101B20000C00B0EB810F09D000F08CF8A0EB08009E
:101B300041F289318842F0D303202BE0306800F075
:101B40000700874204D200F027F801D0012021E0ED
:101B50002078410705D5AA68E06822F4E0520243E4
:101B6000AA602178080706D5A968206921F4604198
:101B700041EAC001A96000F035F8AA681449154B84
:101B8000C2F30312895CC84018601348006801F072
:101B9000C3F90020BDE8F0813770316801F007011A
:101BA000B94270470B480D4A006813680C49C3F3EB
:101BB000822206E00748094A006813680849C3F30F
:101BC0004232895CC8407047003C02400038024005
:101BD0004058000894030020900300200838024079
:101BE000EC58000830B5144C606800F00C00042874
:101BF00002D0082802D01DE0104830BD22682068BD
:101C00000023410202F03F0204D525680B49C5F3C9
:101C1000881003E020680A49C0F38810A1FB000186
:101C200001F09AF92168C1F30141491C4900B0FB58
:101C3000F1F030BD024830BD0438024040787D01EB
:101C40000024F40001484068704700BF880300206A
:101C500070477047704770477047704770B50446CB
:101C6000FFF7F0FF06460CB9012070BD04F1340502
:101C70000220687000212970206802685208520012
:101C8000026022681068C1070AD5FFF7DBFF801BDE
:101C90000628F6D32020286203216970032070BD36
:101CA0001368DFF82C0361680340A0680B43E16808
:101CB000034320690B4361690343A0690B43E16956
:101CC0000343206A0B43616A0343042903D1E16A99
:101CD000206B01430B43136023685A69606AD20882
:101CE000042840EAC2020AD1A66AE16A324331B14D
:101CF000A06988B9002E18BF022E1FD016D35A61D2
:101D0000204600F095F9A96A3F228A4082600020AF
:101D100028620121697070BDB0F5005F0AD1032E01
:101D2000EDD8DFE806F00D0B0D03E8E7B1F1C07F59
:101D3000E5D105E0022E03D9F61EE0D1C801DED5BB
:101D4000402129620120687070BDF8B5044604F195
:101D5000340600253078776A012801D10220F2BDCF
:101D600001203070707801281CD10220707035621B
:101D7000204600F04CF9B06A3F2101FA00F0B8604B
:101D80002068016841F016010160F06820B1206808
:101D9000016841F0080101602068016841F001011B
:101DA000016001E0357002252846F2BDF8B5044611
:101DB00004F134056E6AFFF745FF0746687802288C
:101DC00005D080212962002028700120F2BD206802
:101DD000016821F01601016000F003F9E8680028AD
:101DE00004BF6869002801D000F007F900F0FFF88F
:101DF00020680168CA070CD5FFF724FFC01B06281E
:101E0000F6D3202028620321697000202870032067
:101E1000F2BDA86A3F218140B160002001216970B4
:101E20002870F2BD90F83510022903D08022426557
:101E300001207047052180F83510006802685208BB
:101E400052000260002070472DE9FC41044604F175
:101E5000340600205F4900904FF41650776A0A68F4
:101E60003D68B2FBF0F8B06A082100F0B6F80ED079
:101E70002068026853070AD5026822F00402026053
:101E8000B06A8140B960316A41F001013162B06AE3
:101E900025FA00F1CA070BD521684A69110607D552
:101EA000012202FA00F0B860306A40F002003062AD
:101EB000042100F091F808D021680A68930704D53E
:101EC000B860306A40F004003062102100F084F8FD
:101ED0001BD021680A68130717D5B860206801680D
:101EE0004A0307D5006801030BD5716969B1204623
:101EF00088470AE00168CA0503D4016821F0080197
:101F00000160F16809B120468847B06A202100F0DD
:101F100064F83FD021680A68D3063BD5B8602068D2
:101F2000717805291CD1026822F01602026000F0C7
:101F300058F8F068002804BF7069002801D000F04C
:101F40005CF83F22B06A8240BA60012171700020C3
:101F5000F1693070002939D02046BDE8FC410847BE
:101F600001684A0307D5006801030FD4316989B1BC
:101F7000204688470EE00168CA0507D4016821F0B1
:101F8000100101600120707000213170B16809B149
:101F900020468847306AC8B1306AC10710D505208D
:101FA000707000F024F80098401C8045009003D326
:101FB00020680168CA07F6D40120707000213170D2
:101FC000B16919B12046BDE8FC410847BDE8F3817D
:101FD0003F8010F094030020B06A01FA00F005423F
:101FE00070472068416921F0800141617047206895
:101FF000016849084900016070472068016821F0C4
:10200000080101607047000090F83500704730B556
:102010000468256825F48025256063608068402871
:1020200002D1A260E16030BDA160E26030BD00007D
:1020300030B5016808A401F0FF02103A1823B2FB82
:10204000F3F2890A8902A55CC565042A28BF091D27
:102050008165084630BD0000000610160006101607
:10206000704770477047704710B5044610460A46DF
:102070000146204600F0F4FF204610BD2DE9F84F40
:102080000D4600267649774A0F23044601202F6823
:10209000B04000EA0708804540F0CA804FEA460C8D
:1020A000032707FA0CF76FEA070E6F6807F00309BA
:1020B000B9F1010F1CBF07F00307022F12D1A76867
:1020C000D5F80C900EEA070709FA0CF949EA070758
:1020D000A760676827EA00006F68C7F30017B7407A
:1020E00038436060B0002F7907F00307032F21D039
:1020F000E768D5F808900EEA070709FA0CF949EAEB
:102100000707E7602F7907F00307022F12D1F708BE
:1021100004EB870700F01C09D7F820A003FA09FB9D
:102120002AEA0B0AD5F810B00BFA09F949EA0A09AC
:10213000C7F8209027680EEA070E2F7907F00307EB
:1021400007FA0CF747EA0E0727606F6817F4403F5D
:102150006ED0002700974FEA960C176847F4804727
:10216000176000F00C00176807F48047009703FA27
:1021700000FE009F3C4F57F82C7027EA0E0E3B4F95
:10218000BC4208BF002722D0394FBC4208BF0127FC
:102190001DD0384FBC4208BF022718D0364FBC4272
:1021A00008BF032713D0354FBC4208BF04270ED009
:1021B000334FBC4208BF052709D0324FBC4208BF8D
:1021C000062704D0304FBC420CBF0727082707FA68
:1021D00000F0254F40EA0E0047F82C006FEA080097
:1021E0008F6800EA070C6F68FF0248BF48EA0C0CD2
:1021F000C1F808C0CF6800EA070C6F68BF0248BF8B
:1022000048EA0C0CC1F80CC04F6800EA070C6F6874
:10221000BF0348BF48EA0C0CC1F804C00F6800EACD
:10222000070C6868C00348BF48EA0C0CC1F800C03E
:10223000761C0F2E7FF62AAFBDE8F18F00690840AB
:1022400018BF0120C0B2704702B90904816170470C
:102250000E4A136803421CBF106000F019B87047A3
:10226000003C014044380240083801400000024070
:102270000004024000080240000C0240001002402E
:102280000014024000180240001C0240143C0140AF
:10229000704700000901020002D4294881547047A8
:1022A000284B02F00F021A4402F8041C7047264B18
:1022B00019684FF6FF020002114000F4E060084385
:1022C000224908431860704770B51F4B1C68C4F35F
:1022D00002230124C3F10705052D2EBF0F2504FAA3
:1022E00005F56D1E1E1D072E34BF0023DB1E294081
:1022F000994004FA03F3BDE870405B1E1A40114395
:10230000C8E7010007D4012200F01F01104B8A40EA
:10231000400943F82020704710B5401EB0F1807F7F
:1023200001D3012010BD0B4C60600F214FF0FF3036
:10233000FFF7B0FF0021A16007202060002010BD42
:1023400000E400E018ED00E00CED00E00000FA050C
:1023500000E100E010E000E038B50546DFF8F43AAF
:102360002868DFF8F44A98420DD10C2204F1B40138
:1023700004F1640000F03BFFDFF8E01A086802682F
:1023800022F0080202602868DFF8D41A88420AD1D5
:102390000C2204F1A80104F1200000F028FFDFF86E
:1023A000180B00F0F4FC31BD0068B0F1804F08BF9D
:1023B00001F035BB704738B54B420128DFF8A44A1D
:1023C00013D1DFF8A40A0068012905DA03640122A9
:1023D00000F02AF8002204E00164002200F024F852
:1023E00001224FF48041204619E002281BD1DFF87A
:1023F0007C0ADFF8845A0068012907DAC3630022E7
:1024000008212046FFF720FF012206E0C1630122D8
:1024100008212046FFF718FF002240212846BDE88A
:102420003840FFF711BF31BD4FF400512046FFF790
:102430000BBF002800D404DDDFF81C0A0021016076
:1024400041607047DFF8101A4B880A8808898218A3
:1024500048890A82C3184B8212B28B888889C318B4
:102460008B82C889CB88C318CB82DFF8043A1868FE
:102470004263B1F91220C263DFF8180A0068B1F9AB
:1024800014204263B1F91610C16370472DE9F84F6B
:102490002DED028B96B001F0EFFA00F08BFC1421C9
:1024A000684601F003FB0020DFF8C849DFF8C8598F
:1024B000DFF8C879059046F20808216841F0040168
:1024C00021600021206800F0040005904FF4881678
:1024D00005980591226842F080022260206800F091
:1024E000800000F038FC42F001022260206800F019
:1024F000010000F030FC42F002022260206800F08F
:10250000020000F028FC42F010022260206800F077
:1025100010000590059805914146226842F0080296
:1025200022600022206800F0080005900598DFF87E
:102530003409FFF789FE002240212846FFF784FE78
:102540001320012100900291019669463846FFF759
:1025500095FD012101910291CDF8008000210391A8
:102560006946DFF80009FFF789FD4FF4006100912B
:1025700001960021029138466946FFF77FFD082148
:10258000009101960121029128466946FFF776FDE8
:10259000402100910122002102910391019269469C
:1025A0002846FFF76BFD002200210620FFF78CFE76
:1025B0000620FFF7A6FE002200210720FFF784FE79
:1025C0000720FFF79EFE002200210920FFF77CFE76
:1025D0000920FFF796FE002200210A20FFF774FE73
:1025E0000A20FFF78EFE002200212820FFF76CFE54
:1025F0002820FFF786FE00200090216841F480012A
:1026000021600021206800F4800000900098009173
:10261000226842F40012226000222068DFF860483D
:1026200000F40010009000981020FFF74DFE1020DD
:10263000FFF767FE002200213A20FFF745FE3A200F
:10264000FFF75FFEDFF83C08DFF83C18DFF83C28B6
:10265000016142610021816100224FF48041C26129
:10266000016242628262C262026304F5A870FDF7F1
:102670008BFD08B100F04EFC11A8002100220023C0
:10268000002500F05AFB202109A801F00FFADFF81D
:10269000E067DFF8FC07306040F61F518020B06132
:1026A000716040F2E737B560F760356175613046BB
:1026B00001F000FA08B100F02DFC4FF480501190A9
:1026C00011A9304601F0F3FB08B100F023FC3046BD
:1026D00001F04EFA08B100F01DFC00950195694625
:1026E000304601F099FD08B100F014FC6020029022
:1026F000002204920692089203950595079500F032
:1027000015FB08B100F006FC042200F00FFB08B135
:1027100000F000FC082200F009FB08B100F0FAFB11
:102720004FF400510E9109950A950B950C950D9556
:10273000109509A9304601F0B5FD08B100F0EAFB9B
:102740003046FFF73CF809A800210022002300F0E2
:10275000F4FA4FF45261DFF83C87DFF83C07C8F821
:102760000410C8F800008021C8F81810C8F80850F4
:10277000C8F80C70C8F81050404601F09BF908B139
:1027800000F0C8FB00F0C9FA404601F090FB08B128
:1027900000F0C0FB404601F0EBF908B100F0BAFBD5
:1027A000009501956946404601F036FD08B100F0FC
:1027B000B1FB60210291002203920492069200F084
:1027C000B1FA08B100F0A6FB042200F0ABFA08B1A0
:1027D00000F0A0FB082200F0A5FA08B100F09AFB77
:1027E0004046FEF7ECFFDFF87056DFF8740628620B
:1027F0000C210020A862E8622863A863E8634FF414
:10280000E13A6963C5F824A005F1200000F05CFC02
:1028100008B100F07FFBDFF83C06686600210C2061
:10282000A867E96629676967E967C5F88010C5F890
:1028300068A005F1640000F047FC08B100F06AFBF5
:1028400000F0ABFAA721DFF82496C9F804104FF086
:102850008040C9F8000000228021C9F80820C9F88A
:102860001020C9F81810C9F80C70484601F022F978
:1028700008B100F04FFB00F050FA484601F017FB9A
:1028800008B100F047FB484601F072F908B100F0CA
:1028900041FB00F065FA484600F04CFA08B100F040
:1028A00039FB00F061FA0822484601F09EFA08B1AF
:1028B00000F030FB4846FEF782FF04F5A071DFF818
:1028C000DC05486604F5A0720020C866C2F868A05E
:1028D00004F5A07000220267002104F5A0720C200C
:1028E000516704F5E07B04F5A07100228867CBF8FE
:1028F000002004F5A070C26704F5D27000F0E4FB7C
:1029000008B100F007FB00F048FAA721DFF858A54E
:10291000DFF88C05CAF80410CAF8000000228021F4
:10292000CAF80820CAF81020CAF81810CAF80C70A3
:10293000504601F0BFF808B100F0ECFA00F0EDF9F4
:10294000504601F0B4FA08B100F0E4FA504601F044
:102950000FF908B100F0DEFA00F002FA504600F07C
:10296000E9F908B100F0D6FA00F0FEF90C22504661
:1029700001F03BFA08B100F0CDFA5046FEF71FFF18
:1029800000F0FAF9DFF81C15CBF82810CBF82C0072
:102990008021CBF83020CBF83820CBF84010CBF892
:1029A000347004F5F47001F085F808B100F0B2FA63
:1029B0004FF48050029002A904F5F47001F077FA08
:1029C00008B100F0A7FA00F0CBF904F5F47000F0BC
:1029D000B1F908B100F09EFA00F0B7F9DFF8C814B9
:1029E000CBF87010CBF87400CBF87820CBF87C7063
:1029F00004F5127B8020CBF8000004F50C7001F088
:102A000059F808B100F086FA00F0AAF904F50C7044
:102A100000F090F908B100F07DFA00F096F9CBF8DB
:102A200034008020DFF88414CBF84800CBF8301055
:102A3000CBF83820CBF83C7004F51E7001F03AF862
:102A400008B100F067FA00F08BF904F51E7000F091
:102A500071F908B100F05EFA00F08EF9DFF8501459
:102A6000CBF87810CBF87C0004F5327B8020CBF8D3
:102A70001000CBF80020CBF80820CBF80C20CBF8C6
:102A8000047004F5307001F015F808B100F042FA56
:102A90004FF48050029002A904F5307001F007FA5B
:102AA00008B100F037FA00F05BF904F5307000F07F
:102AB00041F908B100F02EFA6846002100220023F7
:102AC0008C4680E80E10DFF8EC13CBF84010A720FE
:102AD000CBF84C70CBF844008021CBF84820CBF8E1
:102AE0005020CBF8581004F54277384600F0E2FF4A
:102AF00008B100F00FFA4FF4805000906946384654
:102B000001F0D5F908B100F005FA4FF4FA6001F0D0
:102B1000F3FB01224FF40041D248FFF795FB4846F2
:102B200000F0D5FF504600F0D2FF04F5F47000F03D
:102B3000CEFF04F50C7000F0CAFF04F51E7000F023
:102B4000C6FF04F5307000F0C2FF384600F0BFFF4A
:102B500000F008FF00F034FF00F05DFF04F555774A
:102B6000384601F0DDFB82B26423394605F12000CE
:102B700000F0E5FA384601F0D3FB82B2642339460F
:102B800005F1640000F0DBFA0C2205F1A80105F163
:102B9000200000F02CFBC848C84F00F0F8F80C22C9
:102BA00005F1B40105F1640000F021FBAB4800F031
:102BB000EEF83046002100F0E8FF0421304600F036
:102BC000E4FF0821304600F0E0FF0021404600F01D
:102BD000DCFF0421404600F0D8FF0821404600F009
:102BE000D4FF0C21504600F0D0FF0821484600F0E9
:102BF000CCFF3068002141638163C1639FEDB05B0E
:102C0000D8F80000DFF8C08241638163C1639FEDA3
:102C1000AF4B9FEDB03B9FEDB72B9FEDB81B9FEDEA
:102C2000BA0B204601F086FB00F06AF804F1700050
:102C300001F080FB04F1E00900F062F8484601F081
:102C400079FB40F2DA2028816881A881E88104F1CB
:102C500060054FF46166D8F8100001F097FC41EC74
:102C6000110BB4F95003B0EE418AF0EE618A01F025
:102C7000B1FC41EC100BB0EE481AF0EE681A204699
:102C800001F0C1FB3A6800F02BF800F030F804F1D5
:102C9000700001F0B8FBBA6800F022F800F027F8E5
:102CA000484601F0B0FBD5E9000101F0A5FC00B2F7
:102CB000FFF7BFFBD5E91C0101F09EFC01B201202A
:102CC000FFF779FBD4E9500101F096FC01B2022034
:102CD000FFF771FBFFF7B6FB012001F00DFBBAE730
:102CE000724341F2707392FBF3F001F073BC41EC5C
:102CF000110BD5E9000181F0004141EC100B704748
:102D00009FED765B9FED774B9FED783B9FED792BA9
:102D10009FED7A1B9FED7C0B70474FF4805009901C
:102D200009A9704702A9404601F05FB802A93046E0
:102D300001F05BB8694601F06FBA80E82E00CDE97A
:102D4000001202A81C2100F0B1BE00210022CDE932
:102D50000012A720704705900598059122687047DA
:102D6000002100910191704760210022029103929D
:102D70000492069202A9704702A8002100220023B3
:102D80008C4680E80E10CDE90012A720704700683D
:102D9000016821F008010160704709A800210022A4
:102DA00000238C4680E80E10CDE9001202A81C21F9
:102DB00000F07CBE80B592B0302106A800F076FE0F
:102DC000142101A800F072FE002000904D48016817
:102DD00041F0805101600021006800F080500090B7
:102DE00000984B4800910221026842F48042026040
:102DF0000122006800F4804000900098069109923A
:102E000010210A91022200210C920D910822A82182
:102E10000E920F91022204211092119106A801F046
:102E200009FC08B172B6FEE702210291002203926A
:102E30000F204FF4A051019004914FF4805205925D
:102E4000052101A8FEF728FE08B172B6FEE713B00F
:102E500000BD0000004400409C030020BC04002092
:102E60000010014000040240AC0500206405002071
:102E70001C05002030380240000C024000000240D7
:102E8000000000204001002000580040801A060089
:102E900000000140F4050020000800400048004008
:102EA00000040040000C00400010004000140040EE
:102EB00000040140004001405C0400203C0600206A
:102EC0000000000000C082406003002000000000FD
:102ED00000C082C0000000000000000000000000F0
:102EE00000388F400000000000388FC0FCA9F1D2EC
:102EF0004D62503F000000000000F03F0000000065
:102F000000000040403802407B14AE47E17A843F25
:102F10000070004072B6FEE738B50D4D0D4B2A78B3
:102F200004464FF47A711868B1FBF2F2B0FBF2F08C
:102F3000FFF7F2F950B9102C08D2002221464FF0C9
:102F4000FF30FFF7C1F9AC60002032BD012032BD77
:102F50008803002094030020D3BBD9B1B2F5803F91
:102F60005BD2022A1ED98C46B1FBF2F102FB11C3DF
:102F70001B0443EA1043B3FBF2FC02FB1C3380B298
:102F800040EA0343B3FBF2F002FB103240EA0C408C
:102F900000237047022A05D98446B0FBF2F002FBF9
:102FA00010C270474AB105D100F0010249085FEA3A
:102FB0003000704700220023704701F0C9BC0B00AD
:102FC0000200002100207047F7D300220023704741
:102FD000904271EB030CF2D370B5B1FA81F4B3FAFD
:102FE00083F52C1BA340C4F1200532FA05F63343C8
:102FF000A2405FF00046E64002E05B085FEA320272
:10300000841A71EB030524BF204629467641F4D388
:1030100002000B003000002170BD70B5B1FA81F4E0
:10302000B2FA82F5C4F120046419B4F12006DAD3AF
:10303000B2405FF00044F440002502E052085FEA2D
:103040003303C61A71EB020E24BF30467146644149
:103050006D41F3D302000B002000290070BD000079
:1030600062F30F2262F31F42401810F0030308D0EE
:10307000C91A1FD3DB0748BF00F8012D28BF20F86D
:10308000022D130030B414461546103928BF20E92C
:103090003C00FAD8490728BF20E90C0048BF40F897
:1030A000042D890028BF20F8022D48BF00F8012D0B
:1030B00030BC7047C91818BF00F8012DCB0728BFD6
:1030C00000F8012D7047000038B5040001D101203F
:1030D00032BD00F017F808B900F018F800F01BF83E
:1030E00000F023F8FFE7416100F001F832BD2068ED
:1030F000C16841F40051C1600020686020216970FE
:10310000A970704704F13C05687870470021297068
:103110002046FEF7C8BB242068702068C16821F4EF
:103120000051C160204600F0A7BB2068016921F46E
:10313000904101612068416921F02A0170472DE921
:10314000F843054605F13C060C46707820281746E2
:10315000994649D10CB1380001D1012045E03078C1
:10316000012841D00121317000207060212272704D
:10317000FEF768FDAF848046EF84A868B0F5805FF5
:1031800004BF286900280EBF2746204600270021DB
:10319000317004460EE014F8012B426007E0286805
:1031A000002CF8D137F8021BC1F308014160E88C0C
:1031B000411EE9844346E88CCDF80090002807D0F2
:1031C00000228021284600F010FA0028E7D005E010
:1031D00000224021284600F008FA08B1032004E04C
:1031E00020207070002000E00220BDE8F28338B596
:1031F00000F012F80ED109B1130001D1012032BD47
:103200000378012B06D0012505702563204600F0C8
:1032100036FA07E0022032BD044604F13C00837810
:10322000202B704701001AD1206B012816D10022F3
:1032300000922268136800935268009200982268F6
:1032400002F10C0353E8002F206800F10C0542F056
:10325000100245E800200028F1D100E001210846D5
:1032600032BD216801F1140252E8001F206800F10C
:10327000140321F0400143E80010002870477CB59A
:10328000044621680B68CD684A6913F00F0007D126
:10329000980661D5AA065FD52046BDE8764081E252
:1032A000D00702D415F4907F56D0D80705D5E9058C
:1032B00003D5206C40F001002064580705D5D107E4
:1032C00003D5206C40F002002064980705D5D10793
:1032D00003D5206C40F004002064180707D5A90628
:1032E00001D4D00703D5216C41F008012164206C82
:1032F000002830D0980604D5A90644BF204600F027
:1033000051FA20684069216C0A0701D440061DD596
:10331000204600F01CFA20684169480611D5FFF7E5
:10332000A0FFFCD1A06B60B10FF26D410165A06BF5
:10333000FEF778FD00280ED0A06B016DBDE87C4043
:1033400008472046BDE8764001F003BB204601F067
:1033500000FB0020206473BD206B012804F13D02B6
:1033600040F08680D80600D5EE0640F1818000232B
:1033700000930D6800954B680093009849694806D2
:103380003FD5A16B0868406880B20028E3D0A38DC8
:103390009842E0DAE085C869B0F5807F2DD02168D9
:1033A00001F10C0050E8001F236803F10C0521F423
:1033B000807145E800100028F1D100F09BF8490821
:1033C00000F11405490045E800100028F5D100F08F
:1033D00091F800F1140521F0400145E800100028A3
:1033E000F5D1202050700021216300F089F800F011
:1033F0002BF9FAD1A06BFEF7D9FCA18DE08D091A4B
:1034000030E0A08DE18D411AE08D00281CBF88B20C
:10341000002868D0206800F10C0353E8003F00F159
:103420000C0623F4907346E800300028F2D120689F
:1034300000F05AF800F114065B0046E8003000285E
:10344000F5D12020507000222263206800F10C0288
:1034500052E8002F00F10C0522F0100245E8002090
:103460000028F2D12046BDE87C4089B2FEF774BF47
:10347000180629D52E0627D51078212833D1A06823
:10348000B0F5805F04BF2069002808D1206A028857
:10349000C2F308024A60206A811C216204E0206AAB
:1034A000421C226200784860E08C401EE08480B2BA
:1034B000C8B92068C16821F08001C1602068C16876
:1034C00041F04001C16073BD58060CD56B060AD5AA
:1034D000C86820F04000C860202111702046BDE877
:1034E000764001F037BA73BD00F1140353E8003F92
:1034F0005B087047206800F1140151E8001F704715
:10350000206800F10C0151E8001F00F10C03704726
:1035100010B500F034F826D40021C185026802F10C
:103520000C0151E8002F036803F10C0422F48072AF
:1035300000F001F9F2D100F01FF9016801F1140265
:1035400052E8002F01F1140422F0400200F0F3F8D9
:10355000F3D100F08BF906D100F0F1F822F010025F
:1035600000F0E9F8F8D1016B012904D1818DBDE8A3
:103570001040FEF7F1BEBDE8104001F0ECB9014685
:10358000886B09680A68D3057047806B016B012955
:1035900018BF01F0E1B9818D4908FEF7DDBE0000DA
:1035A00038B5846B2068406904F13D0529782129EC
:1035B00006D1010604D50022E284204600F0AFF8CF
:1035C000216848696978222906D1400604D500217E
:1035D000E185204600F0BBF8206C40F0100020642C
:1035E0002046BDE8324001F0B4B92DE9F041069C17
:1035F00005460E4690461F46286801683140B14294
:103600000CBF0120002040451BD114F1010FF3D065
:1036100024B1FEF717FBC01B8442EDD200F01AF86C
:1036200021F4D07100F012F8F8D100F01BF8FCD1B1
:1036300005F13C00202141708170002101700320C0
:1036400000E00020BDE8F08121F0100143E8001007
:1036500000287047286800F10C0151E8001F00F1B4
:103660000C037047286800F1140151E8001F490855
:1036700000F11403490043E8001000287047F8B532
:103680000446134604F13C05A162A385002068604E
:103690002222AA70A448A26BD063A26BA348106434
:1036A000A26BA348D0640020A66B30650A46276849
:1036B000A06B391DFEF749FB0021009121680A68C3
:1036C0000092496800910021009A2970206930B168
:1036D00000F014F841F48071FFF7B8FFF8D100F062
:1036E00016F841F00101FFF7B1FFF8D100F00FF833
:1036F00041F04001FFF7AAFFF8D1F2BD216801F1C6
:103700000C0050E8001F226802F10C03704720688B
:1037100000F1140151E8001F00F11403704710B5C7
:1037200000F00DF822F0C00200F005F8F8D12021D9
:1037300080F83D1010BD44E8002100297047016861
:1037400001F10C0252E8002F01F10C04704710B592
:10375000FFF7F5FF22F49072FFF7EDFFF8D100F0CC
:103760000BF8016B012901D100F071F8202180F8DC
:103770003E100022026310BD016801F1140252E8FC
:10378000002F520801F11404520044E800210029DE
:10379000F2D1704700000000806B0021C185C18418
:1037A00001F0D7B81CB590F83E1022294DD18168A0
:1037B000826AB1F5805F0AD1016969B90368596805
:1037C000C1F308011180826A911C81620FE0002917
:1037D00004BF0169002902D10368596803E0016848
:1037E000496801F07F011170816A4A1C8262C18DB3
:1037F000491EC18589B231BB0168CA6822F0200226
:10380000CA600168CA6822F48072CA6001684A69A5
:10381000520852004A6100F029F812D100210163D8
:1038200000F015F802681168CB0606D50024009454
:1038300013680093526800920099818DFEF78CFD09
:1038400001E001F088F8002016BD022016BD0268D4
:1038500002F10C0151E8002F036803F10C0422F07F
:10386000100244E800210029F1D17047202180F89E
:103870003E10026B012A704770B504462268116938
:10388000E06821F4405101431161D3682948A168DF
:10389000034020690B4361690343E0690B43034321
:1038A000D3605169A06921F44071014351612249FB
:1038B0008A421CBF2148824202D1FEF77BF901E017
:1038C000FEF770F962682568E46964261921B4F589
:1038D000004FA1FB000112D1D30F5200FFF73CFBB8
:1038E00000F02EF8F60032366420B6FBF0F042000D
:1038F00002F4F87202EB011200F0070010E0930FDF
:103900009200FFF729FB00F01BF8360132366420E5
:10391000B6FBF0F000F0F00202EB011200F00F0035
:103920008018A86070BD0000113500088B350008B4
:10393000A1350008F369FFFF0010014000140140A9
:103940006421B0FBF1F106FB1106704710B5464C3F
:1039500004F1180001F002F804F11400BDE8104071
:1039600001F06EB810B5404C04F1180001F03EF8BB
:103970001E2000F0C1FC04F1180000F0F3FF1E202F
:1039800000F0BAFC062104F1180000F0FEFF00F080
:103990003EF801F03BF800F03AF801F03BF800F097
:1039A00036F801F03DF800F032F801F03DF800F093
:1039B0002EF800F0F1FF2D4801F0F8F8608010BDFE
:1039C00038B5294C00F023F801F034F8002161806B
:1039D0001E2000F091FCA288E068B4F90010521C8F
:1039E000A2804018E188E06092B29142F0D290FB50
:1039F000F1F020810020A080E0601C4D2189284644
:103A000001F0C3F8284601F0D1F8608031BD0021F3
:103A100004F1180070471448002101617047F8B59F
:103A2000114E06F1180000F0D0FF7788C71B3780D1
:103A30003FB2380048BF4042022814DB306900F032
:103A4000A5FD0D4604460D2197FBF1F000F0C2FDE7
:103A5000074A084B01F0ACF822462B4601F07AF9F0
:103A600001F036FA3061F1BD600300200000020869
:103A70001AA375543541943F80B50B48016841F451
:103A800000710160026842F480620260016841F4E2
:103A9000807101600320FEF70AFC0F20FFF73CFA5B
:103AA000FDF762FD002002BD003C0240002201F053
:103AB00043BA000038B5040001D1012032BD00F046
:103AC000E7F818B900F051FAFDF7B0FD3DE090F8C5
:103AD0003D10012901D001207047022180F83D10DE
:103AE0000168CA6842F00102CA600068DFF8841108
:103AF000884218BFB0F1804F17D0DFF87C118842A0
:103B00001CBFDFF8782190420FD0DFF87411884293
:103B10001CBFDFF87021904207D0DFF86C1188429B
:103B20001CBFDFF86821904209D1816801F00701CC
:103B3000062908D0016841F00101016003E0026834
:103B400042F0010202600020704702206870211DCF
:103B5000206800F00EFA0120A872A870E8702871A1
:103B60006871A871E871287268726870002032BDAF
:103B700038B5040001D1012032BD00F089F818B930
:103B800000F0F3F901F0F1F9DFE710B5044604F1B4
:103B90003E0009B9027807E0042908BF427803D043
:103BA00008290CBF8278C278012A01D0012010BDFB
:103BB00011B9022202700AE0042902D102224270E5
:103BC00005E0082907BF022282700223C370206823
:103BD000012200F012FB00F032F818BF884200F01A
:103BE00034F818BFB0F1804F12D000F01FF81CBF9E
:103BF000DFF8883098420BD000F014F818BF8842E4
:103C000006D000F02FF81CBFDFF88020904205D1CD
:103C100000F023F804D000F028F801E000F00AF8E2
:103C2000002010BDDFF8582090427047DFF8482090
:103C300090427047026842F00102026070472068BB
:103C40000C4ADFF840109042704703D1436C43F4B4
:103C500000434364206890427047816801F0070187
:103C600006297047084988427047016841F0010100
:103C7000016070470000014000040040000800405F
:103C8000000C0040000401400040014000180040CA
:103C900004F13C056878704710B504462068016956
:103CA0008A0715D5C1688A0712D56FF00201016134
:103CB00001222277806910F0030F204602D001F024
:103CC00055F903E001F053F900F087F80020207760
:103CD000206801694A0715D5C1684A0712D56FF0F7
:103CE0000401016102222277806910F4407F20469E
:103CF00002D001F03BF903E001F039F900F06DF872
:103D000000202077206801690A0715D5C1680A07D5
:103D100012D56FF00801016104222277C06910F00A
:103D2000030F204602D001F021F903E001F01FF952
:103D300000F053F80020207720680169CA0615D5E5
:103D4000C168CA0612D56FF01001016108222277FE
:103D5000C06910F4407F204602D001F007F903E06B
:103D600001F005F900F039F800202077206801699A
:103D7000CA0708D5C168CA0705D56FF001010161FE
:103D80002046FEF711FB206801690A0608D5C168C4
:103D90000A0605D56FF080010161204601F0E8F8C0
:103DA000206801694A0608D5C1684A0605D56FF042
:103DB00040010161204601F0DCF8206801698A06B3
:103DC0000AD5C1688A0607D56FF020010161204637
:103DD000BDE8104001F0CEB810BD204601F0CBB8D0
:103DE000002084F83C002846704770B500F058F871
:103DF00001D1022070BD012084F83C0032B1042AB8
:103E000015D0082A25D00C2A34D045E0206800F0CF
:103E1000FBF82168886940F008008861886920F013
:103E2000040088618A69306902438A6135E020684C
:103E300000F016F92068816941F4006181618169AF
:103E400021F4806181618169326941EA02218161E5
:103E500023E0206800F034F92168C86940F00800C8
:103E6000C861C86920F00400C861CA6930690243AA
:103E7000CA6112E0206800F052F92068C16941F47B
:103E80000061C161C16921F48061C161C1693269A8
:103E900041EA0221C16100E00125FFF7A1FF70BDE9
:103EA0000446002594F83C0001280E46704770B582
:103EB000064606F13C0500242878012801D102209D
:103EC00070BD0120287002226A70DFF89802326803
:103ED0009368034093600868020018BF102830D030
:103EE000202818BF30282CD0402826D0502819D0A0
:103EF00060281BD0702806D0B0F5805F27D0B0F5C1
:103F0000005F07D022E000F02BF83068816841F0B4
:103F1000770105E000F024F83068816841F48041C1
:103F2000816014E000F018F850210BE0CA6849687D
:103F3000306800F03EF9602104E000F00DF8402107
:103F400000E00146306800F046F900E0012401205D
:103F5000687000F00AF870BDCA684968306819E1F5
:103F6000CB684A68896830683DE1002129702046A5
:103F70007047F0B57C4C05687C4B7D4E7D4FDFF87B
:103F8000F8C1A04218BFB0F1804F07D0604518BFFC
:103F9000B84203D0B04218BF98420DD14A6825F00C
:103FA00070051543A04218BFB0F1804F17D060458F
:103FB0001CBFB842B04212D098421CBF6F4A904218
:103FC0000DD06F4EB0421CBF6E4A904207D06E4E6D
:103FD000B0421FBF6D4A90426D4EB04203D1CA68D5
:103FE00025F4407515434A6925F0800515430560A1
:103FF000A0428D68C5620A68826212BF9842096950
:10400000016301224261F0BDF0B5026A564F5208C9
:1040100052000262066A446885690B688A6825F066
:10402000730526F002061D431643504BB84218BFD5
:10403000984207D1CA6826F008061643B84226F00F
:10404000040601D0984205D14B698A6924F4407472
:104050001C43144344608561496841630662F0BDB6
:10406000F0B5026A404E22F010020262B042056AC8
:10407000436884690A6824F4E64444EA02248A68AE
:1040800025F0200545EA0215384A18BF904208D1AC
:10409000CF6825F0800545EA0715B04225F04005B8
:1040A00001D0904206D14E698A6923F440631643D9
:1040B00043EA860343608461496881630562F0BD19
:1040C000F0B5026A22F480720262056A4368C4692C
:1040D0008E680A6825F4007524F0730445EA062505
:1040E0001443214E214AB04218BF904208D1CF68F4
:1040F00025F4006545EA0725B04225F4806501D026
:10410000904206D14E698A6923F44053164343EA2C
:1041100006134360C4614968C1630562F0BD70B5B0
:10412000026A114E22F480520262B042046A42686E
:10413000C3690D6823F4E64343EA05238D6824F43C
:10414000005444EA05341CBF084DA84204D14D690F
:1041500022F4804242EA85124260C36149680164E8
:10416000046270BD8800FFFF0000014000040140B0
:10417000000C0040000800400004004000400140E6
:10418000004401400048014000180040001C00406D
:104190000020004010B5036A046A640864000462E9
:1041A00023F00A03846924F0F00444EA02148461D1
:1041B0002EE010B5036A23F0100303628369046ADA
:1041C00023F4704343EA023324F0A004836144EAF9
:1041D0000114046210BD826822F07002114341F0A4
:1041E00007018160704710B5846824F47F4421433F
:1041F000114341EA0321816010BD10B501F01F0198
:10420000036A01248C40A343036202FA01F1036AAA
:104210001943016210BD000070B500F13C031A782B
:10422000012A01D1022070BD01221A7002245C70A3
:1042300005686E68AC680A6826F0700616436E6002
:1042400002681448824218BFB2F1804F11D0104862
:1042500082421CBF104DAA420BD00C4882421CBFA8
:104260000E4DAA4205D0084882421CBF0C4DAA42FE
:1042700004D1486824F080040443946001215970FB
:104280000020187070BD000000400140000C00408C
:10429000000400400000014000080040000401400C
:1042A0000018004010B590F83C20012A01D10220EE
:1042B00010BD012280F83C20CC688A684B6824F449
:1042C0004074144324F480641C430A680B6924F48A
:1042D0000064144324F480541C434A69C96924F4DB
:1042E00000541443026824F480440C4354640023B3
:1042F00080F83C30002010BD38B50446FDF7A2FC24
:1043000014F1010F054602D0044801786418FDF746
:1043100099FC401BA042FAD331BD00BF88030020A6
:1043200000F1010310F8011B11B110F8011BFBE7AC
:10433000C01A7047D0B504462DED048B84ED0C0BEC
:1043400084ED164B84ED145B84ED001B84ED022B91
:1043500084ED043BD4E900239FED899B94ED0C8B05
:1043600000F045F800F03DF8D4E9022306460F4678
:1043700000F041F800F035F800F041F8D4E90423EA
:1043800000F033F800F03BF8C4E90601D4E9022359
:1043900094ED0C8B00F02FF800F023F8D4E9002303
:1043A00000F023F800F01DF800F015F8D4E904231C
:1043B00006460F460020744900F0FAFB00F00BF8A7
:1043C000C4E90801D4E9042300F011F8C4E90A01A2
:1043D000BDEC048BD0BD02460B463046394600F09A
:1043E000CBBD53EC182B00F0E3BB06460F4651EC57
:1043F000190B00F0DDBB51EC180B00F0D9BB3246B5
:104400003B4600F0A7BC10B504462DED088B00F02C
:1044100081F841EC190B84ED0E9BD4E9020194ED77
:104420000CAB00F07DF853EC1A2B00F0C1FB94EDBF
:10443000148B53EC182B00F011FE41EC1B0B0AD926
:1044400053EC1B2B51EC180B81F0004100F006FEE1
:1044500041EC180B03D8B0EE48BAF0EE68BA84ED20
:1044600008BBD4E9102351EC190B00F085FDD4E909
:10447000042300F09DFB53EC1A2B00F007FE41ECE7
:10448000180B84ED0A8B84ED109BD4E9000100F039
:1044900047F853EC182B00F05DFCD4E9082300F03A
:1044A00059FC94ED168B41EC100B53EC182B0020AB
:1044B000002184ED180B84ED1A0B00F00BFF94ED36
:1044C000100B94ED0E1B84ED120B84ED101B11D01C
:1044D00094ED189B00F03CF802D200F045F807D3A9
:1044E00000F028F841EC180B04D200F02BF801D2B0
:1044F00084ED188B00F03CF809D094ED189B00F087
:1045000013F802D300F02AF801D284ED188BBDEC29
:10451000088B10BD51EC100B53EC112B00F02CBD8F
:1045200053EC192B00F044BB51EC180B53EC192B36
:1045300000F0E0BE53EC192B51EC180B81F0004158
:1045400000F0D8BE51EC190B0022002300F0D2BEBF
:1045500051EC190B0022002300F080BD81F00041D6
:1045600041EC180B51EC190B53EC182B00F0C2BEA8
:1045700094ED148B53EC182B0020002100F0AABE00
:10458000000000000000004000001040C0F3C751D0
:1045900081B1FF2906D0C110400721F0E04101F1AF
:1045A0006051704741020CBF40F4E0016FF00041E0
:1045B0000020704700F0004100020AD0B0FA80FCF1
:1045C00000FA0CF001F16051A1EB0C5101EBD0218C
:1045D00040057047C11768B14840401AB0FA80F2F0
:1045E0009040D21CC907C2F5846241EA025202EB34
:1045F000D021400570470000C1F30A5340F2FE325B
:104600009B1A14DDD3F120034FEAE17208DDC902E1
:1046100041EA505141F00040D84080185040704766
:1046200003F2E13010B1D24382F000407047002025
:10463000704700002DE9F843040016D02078DFF819
:104640000063C10713D5B06800F00C00042807D040
:10465000B06800F00C0008283DD1706841023AD5DE
:104660003068810303D56068002800F063812078FA
:10467000B44F810719D5B06810F00C0F07D0B0689F
:1046800000F00C0008285BD17068410258D43068F3
:10469000810703D5E068012840F04C81316820692A
:1046A00021F0F80141EAC00131602178080779D58D
:1046B0006069A549002868D001220A60FDF7C2FAA6
:1046C0000546706F81076DD4FDF7BCFA401B0228C8
:1046D000F7D9032031E16068B0F5803F04D130683C
:1046E00040F48030306011E0B0F5A02F306806D182
:1046F00040F480203060316841F4803105E020F4DE
:1047000080303060316821F480213160606858B1B8
:10471000FDF798FA054630688103A8D4FDF792FAB0
:10472000401B6528F7D3D4E7FDF78CFA05463068BF
:1047300081039CD5FDF786FA401B6528F7D3C8E7AF
:10474000E068A8B101213960FDF77CFA05463068C0
:10475000810705D4FDF776FA401B0228F7D9B8E7A0
:104760003068216920F0F80040EAC10030609CE721
:104770003860FDF767FA05463168880795D5FDF77B
:1047800061FA401B0228F7D9A3E70860FDF75AFA3F
:104790000546706F810705D5FDF754FA401B0228C6
:1047A000F7D996E7207841075FD5306C0025C10026
:1047B0000AD400950125316C41F080513164306C90
:1047C00000F0805000900098DFF88081D8F8000059
:1047D000C10513D4D8F8000040F48070C8F8000078
:1047E000FDF730FA8146D8F80000C10506D4FDF780
:1047F00029FAA0EB09000228F5D96AE7A068012888
:1048000005D00528306F06D140F004003067306FC6
:1048100040F0010005E0400840003067306F20F0B4
:104820000400306741F28938A06860B1FDF70AFAE8
:104830008146306F810713D4FDF704FAA0EB09001D
:104840004045F6D345E7FDF7FDF98146306F810716
:1048500006D5FDF7F7F9A0EB09004045F6D338E798
:104860001DB1306C20F080503064A069002863D006
:10487000B16801F00C0108293AD002282AD10020A1
:104880003866FDF7DFF905463068810105D5FDF78B
:10489000D9F9401B0228F7D91BE7E069216A626A4F
:1048A0000843A16A490840EA8210491E40EA0140D3
:1048B000E16A40EA0160706001203866FDF7C2F9E4
:1048C00004463068810137D4FDF7BCF9001B02288B
:1048D000F7D9FEE600203866FDF7B4F904463068E3
:1048E000810129D5FDF7AEF9001B0228F7D9F0E6C2
:1048F00001281FD07068E26900F48001914202BF74
:1049000000F03F01226A914201BF47F6C0710140A9
:10491000626AB1EB821F0DD1A26A520800F44031E5
:10492000521EB1EB024F02BF00F07060E16AB0EBC3
:10493000016F01D0012000E00020BDE8F28300BF3C
:104940000038024000004742800E4742007000409D
:1049500070477047704770477047000000BF68217C
:104960000170704710B50446012100F049F800219C
:10497000204600F011F80021204600F013F82046F0
:10498000BDE81040002100F035B880B500F010F807
:104990001A2100F081F801BD80B500F023F804224F
:1049A0001B21F6E780B500F01DF804221C21F0E77A
:1049B0000091032300780222704700F049F86178E3
:1049C000A07840EA012000B232BD38B500F002F80C
:1049D0004721F2E70446164805880095631C2078B5
:1049E000022270470091022300787047007801236B
:1049F000072202E00B46007806226B2100F036B851
:104A000080B5FFF7D5FF6B21FFF7C3BF0B460078DA
:104A1000052202E00B46007804226C2100F026B843
:104A20000B4600780222F8E70B4600780122F4E7F3
:104A3000980300208AB20078172100F054B80000D3
:104A4000704780B500931346012200F001F802BDC3
:104A50001FB5019200930A46069C0294410001236F
:104A60003D48FBF7F9FC40B204B010BDF8B500F0CA
:104A700020F801239DF8000003FA06F6002F14BF6A
:104A8000064320EA06068DF8006029469DF80020BE
:104A9000204600F022F8F2BDF8B500F00AF830B96F
:104AA000012106989DF8002000F00BF8EBE70020AC
:104AB000F2BD1646294A1F46138804460D466A462B
:104AC000BFE7F61B01FA07F7761C7F1EB74000FA16
:104AD00006F6BA433E401643704704B56B460122C2
:104AE00000F007F802BD04B56B46012200F010F893
:104AF00002BD1FB5019200930A464FF47A7441003B
:104B0000029401231448FBF70FFC012004B010BDF0
:104B1000F8B588B0002403AE0AE033F814502D0A2B
:104B200006F8145006EB440733F814507D70641CEB
:104B30009442F2DB520001924FF47A740A4603ADBC
:104B400041000294009501230348FBF7EDFB01208F
:104B500009B0F0BD000000005001002098030020C3
:104B600080B586B000F015FC0521039100200221DC
:104B700001900122059100900492694601A800F07D
:104B8000C1FC00F016FC07B000BD38B505460C4668
:104B9000FFF7E6FF00F0FDFB224600232946012037
:104BA00000F0C0FBBDE8314000F003BC0068704776
:104BB000B0B581EA030C0CF0004C40F2FF7515EA29
:104BC00011541DBF15EA1357AC42AF4239E0E41946
:104BD00023EA455343F48013C90241F0004141EAFE
:104BE000505EC7021100A7FB020200284FF0000030
:104BF000EEFB01204FF00001E3FB072118BF42F05C
:104C00000102401800214941E3FB0E01A4F5806434
:104C10000F0302D252004041494154F101046CDDBE
:104C2000470872F1004250F1000051EB0451A1F528
:104C300080115CBF41EA0C01B0BD4CEA0551002077
:104C4000B0BD05EA1357AC4214BFAF4241E050EA91
:104C5000410E1CBF52EA430E02E061460020B0BD87
:104C600024423C441BD15FEA070EF6D0090302BF81
:104C700001460020AEF1140EB1FA81F7AEEB070445
:104C800001FA07FE0C37C7F1200100FA07F7C84008
:104C90004EEA000E23EA455343F48013A2E733F0B3
:104CA0000043B3FA83F704BFB2FA82FE77440B3FA6
:104CB000E41BB7F1200E2FBF02FA0EF3BB40C7F181
:104CC000200E22FA0EFE38BF43EA0E03BA40641CDF
:104CD00082E750EA410E14BF52EA430E6FF0000122
:104CE0004FF4001717EB430F8ABF194617EB410F1C
:104CF000B5E74CEA05510020B0BDD4F10104B4F190
:104D000020070FDAC4F12007520828BF42F0010241
:104D100010FA07F501FA07F7E1BF2A43E0403843EC
:104D2000E1400FE0352C98DCC7F1200452EA400244
:104D300020FA07F218BF42F0010231FA07F0A14051
:104D40000A43002172F1004250F1000051EB0C01C6
:104D5000B0BD000070B44FF0004591EA030F40F180
:104D600013816B40841A71EB030604D26E40001B62
:104D7000B141121973414FF4001C1CEB410F34BFB9
:104D80007CEB430683E00C0DA4EB1356362E00F3A8
:104D90007C80012E45EAC32341DC43EA525312BF13
:104DA000D20292025B08240545EAC12141EA505132
:104DB000D2EBC020994125D407D1B0FA80F610FA81
:104DC00006F162D00020203608E0B1FA81F6B14049
:104DD000C6F1200220FA02F21143B0404FEAF47407
:104DE000B4EB465434F001064FEA74040AD8D6F501
:104DF0000016760D04F00044F04061FA06F25040CF
:104E0000F1404840C00A40EA415021F0004128BF2B
:104E10005FEA500550F1000044EBD12135E0DB0A98
:104E200045EAC121C90AB6F120050EDD42EA024277
:104E3000120CC5F1200603FA06F6EB4042EA06051D
:104E40006D42984161F100010DE062FA06F5F24011
:104E5000554063FA06FC82EA0C02F3405A406D4268
:104E6000904161EB030111F4801F05D1641E6205BE
:104E700002D06D004041494121F48011430875F191
:104E8000004350F1000041EB045170BC70471CEB33
:104E9000410F15D223F0004352EA43060BD04FEAEC
:104EA0004C0CBCEB410F04D80C0D661E342EB7DD44
:104EB000EBE7801A994150EA410608BF0021E4E778
:104EC00008BF1CEB430F28BF6FF00001DDE70000B7
:104ED00001F000428B1AA3F16051B1F5801F0ADB8B
:104EE000B1F17F6F1FD242EAC102C10071F10041EE
:104EF00042EB507070470B15C3F10903212B10D200
:104F0000890241EA905180020128494141F0004163
:104F100021FA03F0C3F12003994071F1004150419F
:104F20007047100070476FF0000013EB103F5CBF3C
:104F3000000E42EAC050704700B500BF130096460D
:104F40009446103928BFA0E80C50FAD85FEA417C9B
:104F500028BF0CC048BF40F8042BC90728BF20F861
:104F6000022B48BF00F8012B00BD70477047704707
:104F7000704770477047704770B44FF0004591EA32
:104F8000030F7FF5EFAE6B40841A71EB030603D27B
:104F9000001BB141121973414FF4001C1CEB410F6F
:104FA00034BF7CEB430442E00C0DA4EB1356352ECA
:104FB0004FDC45EAC323DB0A45EAC121C912B6F139
:104FC00020050DDD63FA05F6EB4086EA0305124283
:104FD00018BF45F00105C01851F100010CD213E0D3
:104FE00062FA06F5F2405540F3415A40B340F340AF
:104FF0005A408018594107D349085FEA30005FEAF8
:10500000350528BF45F0010501F58011420875F10D
:10501000004250F1000041EB04514E0016F5001F14
:1050200070BC38BF70470020090D090570471CEBA4
:10503000410F10D252EA43060BD0BCEB410F05D80A
:105040000C0DAB43661E342EB6DD02E0AB43801878
:10505000594170BC704770BC704700004FF4001C91
:105060001CEB410F94BF1CEB430F09E041EA030C1A
:1050700050EA4C0C52EA0C0C03D28B4208BF82421D
:10508000704714BF9942904270470000F0B540F25B
:10509000FF7581EA030C0CF0004C15EA11541DBF9A
:1050A00015EA1357AC42AF42E5E0BC41C1F313012E
:1050B000C3F31303801A994143F4801304D2641E8E
:1050C0004000494180185941C90241EA5051B1FBA1
:1050D000F3F603FB1611A2FB0675D7EBC020A9411E
:1050E00002D2761E80185941C90241EA5051B1FBE3
:1050F000F3FE03FB1E11A2FB0E75D7EBC020A941E6
:1051000003D2AEF1010E80185941890241EA905153
:10511000760546EA8E2EB1FBF3F603FB1611A2FBD1
:105120000675D7EB8020A94102D2761E801859411E
:10513000C90241EA50514EEA060EB1FBF3F603FBF9
:105140001611A2FB0675D7EBC020A94102D2761E2C
:1051500080185941C90241EA5051B1FBF3F703FBF2
:105160001711A2FB0735D3EBC020A94167F1000757
:105170000CBF004247F0010766F3D5274FEA1E3106
:10518000B80814F5806412DDBD0775F1004250EBDC
:105190000E5051EB045111F5801F5CBF41EA0C0128
:1051A000F0BD4CF07F6141F0E0410020F0BDBD0753
:1051B0006D0840EA0E5041F48011D4F10104B4F1BD
:1051C00020060ADAC4F120060200E04001FA06F3E4
:1051D000E1401843B24015430EE0342C13DCC6F115
:1051E000200445EA40056D0820FA06F2154321FA2D
:1051F00006F0A1400D43002175F1004250F100007E
:1052000051EB0C01F0BD00205FEA0C01F0BDCFB9FD
:1052100092185B41B3FA83F704BFB2FA82F6BF1962
:105220000B3FB7F120062FBF02FA06F3BB40C7F1D0
:10523000200622FA06F638BF3343BA401CB1E419FF
:10524000641E33E77F4231F00041B1FA81F404BFBC
:10525000B0FA80F6A4190B3CB4F120062FBF00FA77
:1052600006F1A140C4F1200620FA06F638BF31430A
:10527000A0403C1B1AE7AC421ABF05EA1357AF42E5
:1052800012E050EA41061CBF52EA4306BFE750EA6B
:105290004107304661461CBF41EA0551F0BD52EA64
:1052A000430C08BFC143F0BD00204FF4001616EBBD
:1052B000410F98BF16EB430F08BF16EB410F24BFF9
:1052C000C14305E016EB430F0CBF61464CEA0551A4
:1052D000F0BD000090420CD141EA030C50EA4C0CA6
:1052E00007D0994205D14FF4001C1CEB410F38BF89
:1052F000894270474FF4001C1CEB410F94BF1CEB1C
:10530000430F09E041EA030C50EA4C0C52EA0C0C42
:1053100003D2994208BF9042704714BF8B42824229
:10532000704700002DE9F843704F0646387E01288B
:10533000894614461D4608BF022028D00120387631
:105340004CF25038404600F03CF801001DD1484670
:1053500022462B461EB9D1B200F08CF80DE0012E8A
:1053600003D191B200F070F807E0022E03D111468C
:1053700000F061F801E000F04AF8404600F021F842
:105380005B490A68520852000A6000213976BDE87C
:10539000F2835949CA680020002A00D4704710B52A
:1053A000564A574C0A600C60C968002948BF012062
:1053B00010BD4F48016841F00041FFE70160002047
:1053C000704770B5044649494A4E0020C861FCF751
:1053D00039FC05463068C1030AD514F1010FF9D034
:1053E00024B1FCF72FFC401B8442F3D2032070BD94
:1053F0003068C10744BF01203060316811F0F20FFE
:1054000003D000F041F8012070BD002070BD30B520
:1054100037490C6824F440740C600D6845F44075FD
:105420000D600C6844F001040C6040F8042BBFF3DD
:105430006F8F036030BD10B500F015F844F40074B0
:1054400000F00BF8016010BD10B500F00CF844F44A
:10545000807400F002F8018010BD1460136843F0FE
:10546000010313607047224A136823F440731360EA
:105470001468704730B5FFF7F6FF1460156845F003
:1054800001051560017030BD1A4918480A68D30635
:1054900005D5C26942F01002C26110230B600A6890
:1054A000930605D5C26942F00802C26120230B6051
:1054B0000A68530605D5C26942F00402C26140235E
:1054C0000B600A68130605D5C26942F00202C26188
:1054D00080230B600A68930705D5C26942F0200259
:1054E000C2610220086070470000000068060020CA
:1054F000103C02400C3C0240043C02402301674542
:10550000AB89EFCD2DE9F047524E0446307E01289D
:10551000894608BF02203CD0012030764CF2503A38
:105520005046FFF74EFF804680BB4FF0FF30C9F872
:1055300000002168484D01290DD120696168C0B281
:1055400000F029F85046FFF73CFF8046286820F01D
:105550000400286018E0A76800E07F1CE068A168EC
:105560000818874210D22169C9B2384600F023F8E2
:105570005046FFF726FF5FEA0008286820F0FA008F
:105580002860EAD0C9F8007000F03BF800203076BF
:105590004046BDE8F08730490A6822F440720A604C
:1055A00000020B6843F004030B6040F480300A688B
:1055B00010430860704710B500220B000AD0012983
:1055C00008BF4FF4807205D002290CBF4FF400725F
:1055D0004FF4407220490B6823F440730B60C00005
:1055E0000C6822430A6040F002000A6822F0F802C8
:1055F0000A600B6818430860086840F4803008604F
:1056000010BD164801688A050FD5016821F40071A4
:105610000160026842F400620260016821F40061E6
:105620000160026842F40072026001684A050FD509
:10563000016821F480610160026842F480520260D6
:10564000016821F480510160026842F480620260C6
:105650007047000068060020103C0240003C0240F9
:10566000FEE7FEE7FEE7FEE7FEE77047704770479C
:1056700000F082B810B50120FCF7EAFD02212D48A8
:105680002D4CFCF7DBFD18B92068401E206010BDD2
:105690002168491C216010BD0220FCF7D9BD0820FB
:1056A000FCF7D6BD10B51020FCF7D2FD0821234829
:1056B000214CFCF7C3FD0028A0680CBF401E401C15
:1056C000A06010BD1E48FCF7BFBB80B51D48FEF7AB
:1056D000E3FABDE802401C48FEF7DEBA1B48FEF7BD
:1056E000DBBA1B48FEF7D8BA1A48FAF7CDBF1948FB
:1056F000FBF77ABB1848FDF7C2BD1848FDF7BFBDE0
:105700001748FDF7BCBD4FF40060FCF7A1BD00E0F9
:1057100000BF1448FEF7C0BAFBE7FAE71248FEF7ED
:10572000BBBA1248FEF7B8BA1148FEF7B5BA11482D
:10573000FCF78ABB000002403C060020000C02403F
:10574000BC0400201C050020080300206405002084
:10575000AC05002050010020BC0300200004002004
:10576000A4010020C0020020E80100203002002037
:10577000780200205C0400200248416802788A1800
:10578000426070478803002030B501688468421881
:10579000416802EB5103C90703D54C4401E0491CA1
:1057A00005D19A420AD012F9011B12F8015B0029B7
:1057B00004F8015BF3D4491EF7D5F2E70C3030BD95
:1057C00010B5074979441831064C7C44163404E07E
:1057D0000A68081D114488470146A142F8D110BD4E
:1057E0002C0000004C0000004EF68851CEF2000163
:1057F000086840F470000860BFF34F8FBFF36F8FED
:105800004FF00070E1EE100A7047000023BDFFFF6B
:10581000EC0200009C030020000000006DFFFFFF71
:10582000C40100005A000000000000202500000014
:105830000248016841F470010160704788ED00E0A2
:105840000000000000000000010203040607080930
:1058500010B50446044979440E31044878440C30AC
:1058600000F006F8204610BD7C0100007401000025
:1058700038B504460D46AC4205D020682018804754
:10588000241DAC42F9D131BD00F00DF8002801D043
:10589000FFF796FFAFF300800020AFF30080FCF726
:1058A000F5FD00F002F80120704700F001B800009B
:1058B0000746384600F002F8FBE7000080B5AFF37A
:1058C0000080024A11001820ABBEFBE72600020050
:1058D000014880470148004731580008E158000856
:1058E000AFF30080FFF780FFFFF7CEFF000000005E
:1058F00001020304FFF7FEBFFFF7FEBFFFF7FEBF85
:10590000FFF7FEBFFFF7FEBFFFF7FEBFFFF7FEBFCB
:10591000FFF7FEBFFFF7FEBFFFF7FEBFFFF7FEBFBB
:10592000FFF7FEBFFFF7FEBFFFF7FEBFFFF7FEBFAB
:10593000FFF7FEBFFFF7FEBFFFF7FEBFFFF7FEBF9B
:10594000FFF7FEBFFFF7FEBFFFF7FEBFFFF7FEBF8B
:10595000FFF7FEBFFFF7FEBFFFF7FEBFFFF7FEBF7B
:10596000FFF7FEBFFFF7FEBFFFF7FEBFFFF7FEBF6B
:10597000FFF7FEBFFFF7FEBFFFF7FEBFFFF7FEBF5B
:10598000FFF7FEBFFFF7FEBFFFF7FEBFFFF7FEBF4B
:10599000FFF7FEBFFFF7FEBFFFF7FEBFFFF7FEBF3B
:1059A000FFF7FEBFFFF7FEBFFFF7FEBFFFF7FEBF2B
:1059B000FFF7FEBFFFF7FEBFFFF7FEBFFFF7FEBF1B
:1059C000FFF7FEBFFFF7FEBFFFF7FEBFFFF7FEBF0B
:1059D000FFF7FEBFFFF7FEBFFFF7FEBFFFF7FEBFFB
:1059E0006DDFFFFF81008100810081008100810067
:1059F000A60008694641434D3A20320AF70001F4F7
:105A000001E0000001F9000010FC000424F400E8AB
:015A10000392
:04000005080058E1B6
:00000001FF
